{
  "_format": "hh-sol-artifact-1",
  "contractName": "WeatherShield",
  "sourceName": "contracts/WeatherShield.sol",
  "abi": [
    {
      "inputs": [
        {
          "internalType": "address",
          "name": "_priceFeed",
          "type": "address"
        }
      ],
      "stateMutability": "nonpayable",
      "type": "constructor"
    },
    {
      "inputs": [
        {
          "internalType": "address",
          "name": "sender",
          "type": "address"
        },
        {
          "internalType": "uint256",
          "name": "tokenId",
          "type": "uint256"
        },
        {
          "internalType": "address",
          "name": "owner",
          "type": "address"
        }
      ],
      "name": "ERC721IncorrectOwner",
      "type": "error"
    },
    {
      "inputs": [
        {
          "internalType": "address",
          "name": "operator",
          "type": "address"
        },
        {
          "internalType": "uint256",
          "name": "tokenId",
          "type": "uint256"
        }
      ],
      "name": "ERC721InsufficientApproval",
      "type": "error"
    },
    {
      "inputs": [
        {
          "internalType": "address",
          "name": "approver",
          "type": "address"
        }
      ],
      "name": "ERC721InvalidApprover",
      "type": "error"
    },
    {
      "inputs": [
        {
          "internalType": "address",
          "name": "operator",
          "type": "address"
        }
      ],
      "name": "ERC721InvalidOperator",
      "type": "error"
    },
    {
      "inputs": [
        {
          "internalType": "address",
          "name": "owner",
          "type": "address"
        }
      ],
      "name": "ERC721InvalidOwner",
      "type": "error"
    },
    {
      "inputs": [
        {
          "internalType": "address",
          "name": "receiver",
          "type": "address"
        }
      ],
      "name": "ERC721InvalidReceiver",
      "type": "error"
    },
    {
      "inputs": [
        {
          "internalType": "address",
          "name": "sender",
          "type": "address"
        }
      ],
      "name": "ERC721InvalidSender",
      "type": "error"
    },
    {
      "inputs": [
        {
          "internalType": "uint256",
          "name": "tokenId",
          "type": "uint256"
        }
      ],
      "name": "ERC721NonexistentToken",
      "type": "error"
    },
    {
      "inputs": [
        {
          "internalType": "address",
          "name": "owner",
          "type": "address"
        }
      ],
      "name": "OwnableInvalidOwner",
      "type": "error"
    },
    {
      "inputs": [
        {
          "internalType": "address",
          "name": "account",
          "type": "address"
        }
      ],
      "name": "OwnableUnauthorizedAccount",
      "type": "error"
    },
    {
      "inputs": [],
      "name": "ReentrancyGuardReentrantCall",
      "type": "error"
    },
    {
      "anonymous": false,
      "inputs": [
        {
          "indexed": true,
          "internalType": "address",
          "name": "owner",
          "type": "address"
        },
        {
          "indexed": true,
          "internalType": "address",
          "name": "approved",
          "type": "address"
        },
        {
          "indexed": true,
          "internalType": "uint256",
          "name": "tokenId",
          "type": "uint256"
        }
      ],
      "name": "Approval",
      "type": "event"
    },
    {
      "anonymous": false,
      "inputs": [
        {
          "indexed": true,
          "internalType": "address",
          "name": "owner",
          "type": "address"
        },
        {
          "indexed": true,
          "internalType": "address",
          "name": "operator",
          "type": "address"
        },
        {
          "indexed": false,
          "internalType": "bool",
          "name": "approved",
          "type": "bool"
        }
      ],
      "name": "ApprovalForAll",
      "type": "event"
    },
    {
      "anonymous": false,
      "inputs": [
        {
          "indexed": true,
          "internalType": "address",
          "name": "newAddress",
          "type": "address"
        }
      ],
      "name": "CREAuthorizedUpdated",
      "type": "event"
    },
    {
      "anonymous": false,
      "inputs": [
        {
          "indexed": true,
          "internalType": "address",
          "name": "provider",
          "type": "address"
        },
        {
          "indexed": false,
          "internalType": "uint256",
          "name": "amount",
          "type": "uint256"
        },
        {
          "indexed": false,
          "internalType": "uint256",
          "name": "shares",
          "type": "uint256"
        }
      ],
      "name": "LiquidityDeposited",
      "type": "event"
    },
    {
      "anonymous": false,
      "inputs": [
        {
          "indexed": true,
          "internalType": "address",
          "name": "provider",
          "type": "address"
        },
        {
          "indexed": false,
          "internalType": "uint256",
          "name": "amount",
          "type": "uint256"
        },
        {
          "indexed": false,
          "internalType": "uint256",
          "name": "shares",
          "type": "uint256"
        }
      ],
      "name": "LiquidityWithdrawn",
      "type": "event"
    },
    {
      "anonymous": false,
      "inputs": [
        {
          "indexed": true,
          "internalType": "address",
          "name": "previousOwner",
          "type": "address"
        },
        {
          "indexed": true,
          "internalType": "address",
          "name": "newOwner",
          "type": "address"
        }
      ],
      "name": "OwnershipTransferred",
      "type": "event"
    },
    {
      "anonymous": false,
      "inputs": [
        {
          "indexed": true,
          "internalType": "uint256",
          "name": "policyId",
          "type": "uint256"
        },
        {
          "indexed": false,
          "internalType": "uint256",
          "name": "refundAmount",
          "type": "uint256"
        }
      ],
      "name": "PolicyCancelled",
      "type": "event"
    },
    {
      "anonymous": false,
      "inputs": [
        {
          "indexed": true,
          "internalType": "uint256",
          "name": "policyId",
          "type": "uint256"
        },
        {
          "indexed": true,
          "internalType": "address",
          "name": "holder",
          "type": "address"
        },
        {
          "indexed": false,
          "internalType": "uint256",
          "name": "payoutAmount",
          "type": "uint256"
        },
        {
          "indexed": false,
          "internalType": "int256",
          "name": "triggerValue",
          "type": "int256"
        }
      ],
      "name": "PolicyClaimed",
      "type": "event"
    },
    {
      "anonymous": false,
      "inputs": [
        {
          "indexed": true,
          "internalType": "uint256",
          "name": "policyId",
          "type": "uint256"
        },
        {
          "indexed": true,
          "internalType": "address",
          "name": "holder",
          "type": "address"
        },
        {
          "indexed": false,
          "internalType": "uint256",
          "name": "premium",
          "type": "uint256"
        },
        {
          "indexed": false,
          "internalType": "uint256",
          "name": "coverageAmount",
          "type": "uint256"
        },
        {
          "indexed": false,
          "internalType": "enum WeatherShield.WeatherType",
          "name": "weatherType",
          "type": "uint8"
        },
        {
          "indexed": false,
          "internalType": "string",
          "name": "location",
          "type": "string"
        },
        {
          "indexed": false,
          "internalType": "enum WeatherShield.RiskTier",
          "name": "riskTier",
          "type": "uint8"
        }
      ],
      "name": "PolicyCreated",
      "type": "event"
    },
    {
      "anonymous": false,
      "inputs": [
        {
          "indexed": true,
          "internalType": "uint256",
          "name": "policyId",
          "type": "uint256"
        }
      ],
      "name": "PolicyExpired",
      "type": "event"
    },
    {
      "anonymous": false,
      "inputs": [
        {
          "indexed": false,
          "internalType": "uint256",
          "name": "toLPs",
          "type": "uint256"
        },
        {
          "indexed": false,
          "internalType": "uint256",
          "name": "toProtocol",
          "type": "uint256"
        }
      ],
      "name": "PremiumDistributed",
      "type": "event"
    },
    {
      "anonymous": false,
      "inputs": [
        {
          "indexed": true,
          "internalType": "uint256",
          "name": "proposalId",
          "type": "uint256"
        },
        {
          "indexed": false,
          "internalType": "string",
          "name": "paramName",
          "type": "string"
        },
        {
          "indexed": false,
          "internalType": "uint256",
          "name": "newValue",
          "type": "uint256"
        },
        {
          "indexed": false,
          "internalType": "address",
          "name": "proposer",
          "type": "address"
        }
      ],
      "name": "ProposalCreated",
      "type": "event"
    },
    {
      "anonymous": false,
      "inputs": [
        {
          "indexed": true,
          "internalType": "uint256",
          "name": "proposalId",
          "type": "uint256"
        }
      ],
      "name": "ProposalExecuted",
      "type": "event"
    },
    {
      "anonymous": false,
      "inputs": [
        {
          "indexed": true,
          "internalType": "address",
          "name": "from",
          "type": "address"
        },
        {
          "indexed": true,
          "internalType": "address",
          "name": "to",
          "type": "address"
        },
        {
          "indexed": true,
          "internalType": "uint256",
          "name": "tokenId",
          "type": "uint256"
        }
      ],
      "name": "Transfer",
      "type": "event"
    },
    {
      "anonymous": false,
      "inputs": [
        {
          "indexed": true,
          "internalType": "uint256",
          "name": "proposalId",
          "type": "uint256"
        },
        {
          "indexed": true,
          "internalType": "address",
          "name": "voter",
          "type": "address"
        },
        {
          "indexed": false,
          "internalType": "bool",
          "name": "support",
          "type": "bool"
        },
        {
          "indexed": false,
          "internalType": "uint256",
          "name": "weight",
          "type": "uint256"
        }
      ],
      "name": "VoteCast",
      "type": "event"
    },
    {
      "anonymous": false,
      "inputs": [
        {
          "indexed": false,
          "internalType": "string",
          "name": "location",
          "type": "string"
        },
        {
          "indexed": false,
          "internalType": "int256",
          "name": "value",
          "type": "int256"
        },
        {
          "indexed": false,
          "internalType": "uint256",
          "name": "timestamp",
          "type": "uint256"
        },
        {
          "indexed": false,
          "internalType": "uint8",
          "name": "sourceCount",
          "type": "uint8"
        }
      ],
      "name": "WeatherDataUpdated",
      "type": "event"
    },
    {
      "inputs": [],
      "name": "MAX_GAS_PER_TRANSACTION",
      "outputs": [
        {
          "internalType": "uint256",
          "name": "",
          "type": "uint256"
        }
      ],
      "stateMutability": "view",
      "type": "function"
    },
    {
      "inputs": [],
      "name": "QUORUM_PERCENT",
      "outputs": [
        {
          "internalType": "uint256",
          "name": "",
          "type": "uint256"
        }
      ],
      "stateMutability": "view",
      "type": "function"
    },
    {
      "inputs": [],
      "name": "VOTING_PERIOD",
      "outputs": [
        {
          "internalType": "uint256",
          "name": "",
          "type": "uint256"
        }
      ],
      "stateMutability": "view",
      "type": "function"
    },
    {
      "inputs": [
        {
          "internalType": "address",
          "name": "to",
          "type": "address"
        },
        {
          "internalType": "uint256",
          "name": "tokenId",
          "type": "uint256"
        }
      ],
      "name": "approve",
      "outputs": [],
      "stateMutability": "nonpayable",
      "type": "function"
    },
    {
      "inputs": [
        {
          "internalType": "address",
          "name": "owner",
          "type": "address"
        }
      ],
      "name": "balanceOf",
      "outputs": [
        {
          "internalType": "uint256",
          "name": "",
          "type": "uint256"
        }
      ],
      "stateMutability": "view",
      "type": "function"
    },
    {
      "inputs": [
        {
          "internalType": "uint256",
          "name": "_premium",
          "type": "uint256"
        },
        {
          "internalType": "enum WeatherShield.WeatherType",
          "name": "_type",
          "type": "uint8"
        },
        {
          "internalType": "int256",
          "name": "_threshold",
          "type": "int256"
        }
      ],
      "name": "calculateCoverage",
      "outputs": [
        {
          "internalType": "uint256",
          "name": "",
          "type": "uint256"
        }
      ],
      "stateMutability": "view",
      "type": "function"
    },
    {
      "inputs": [
        {
          "internalType": "uint256",
          "name": "_policyId",
          "type": "uint256"
        }
      ],
      "name": "cancelPolicy",
      "outputs": [],
      "stateMutability": "nonpayable",
      "type": "function"
    },
    {
      "inputs": [],
      "name": "creAuthorized",
      "outputs": [
        {
          "internalType": "address",
          "name": "",
          "type": "address"
        }
      ],
      "stateMutability": "view",
      "type": "function"
    },
    {
      "inputs": [],
      "name": "depositFunds",
      "outputs": [],
      "stateMutability": "payable",
      "type": "function"
    },
    {
      "inputs": [],
      "name": "depositLiquidity",
      "outputs": [],
      "stateMutability": "payable",
      "type": "function"
    },
    {
      "inputs": [
        {
          "internalType": "uint256",
          "name": "ethAmount",
          "type": "uint256"
        }
      ],
      "name": "ethToUsd",
      "outputs": [
        {
          "internalType": "uint256",
          "name": "",
          "type": "uint256"
        }
      ],
      "stateMutability": "view",
      "type": "function"
    },
    {
      "inputs": [
        {
          "internalType": "uint256",
          "name": "_proposalId",
          "type": "uint256"
        }
      ],
      "name": "executeProposal",
      "outputs": [],
      "stateMutability": "nonpayable",
      "type": "function"
    },
    {
      "inputs": [
        {
          "internalType": "uint256",
          "name": "_policyId",
          "type": "uint256"
        }
      ],
      "name": "expirePolicy",
      "outputs": [],
      "stateMutability": "nonpayable",
      "type": "function"
    },
    {
      "inputs": [
        {
          "internalType": "uint256",
          "name": "tokenId",
          "type": "uint256"
        }
      ],
      "name": "getApproved",
      "outputs": [
        {
          "internalType": "address",
          "name": "",
          "type": "address"
        }
      ],
      "stateMutability": "view",
      "type": "function"
    },
    {
      "inputs": [],
      "name": "getContractBalance",
      "outputs": [
        {
          "internalType": "uint256",
          "name": "",
          "type": "uint256"
        }
      ],
      "stateMutability": "view",
      "type": "function"
    },
    {
      "inputs": [],
      "name": "getEthUsdPrice",
      "outputs": [
        {
          "internalType": "int256",
          "name": "price",
          "type": "int256"
        }
      ],
      "stateMutability": "view",
      "type": "function"
    },
    {
      "inputs": [
        {
          "internalType": "address",
          "name": "_lp",
          "type": "address"
        }
      ],
      "name": "getLPValue",
      "outputs": [
        {
          "internalType": "uint256",
          "name": "",
          "type": "uint256"
        }
      ],
      "stateMutability": "view",
      "type": "function"
    },
    {
      "inputs": [
        {
          "internalType": "uint256",
          "name": "_policyId",
          "type": "uint256"
        }
      ],
      "name": "getPolicy",
      "outputs": [
        {
          "components": [
            {
              "internalType": "address",
              "name": "holder",
              "type": "address"
            },
            {
              "internalType": "uint256",
              "name": "premium",
              "type": "uint256"
            },
            {
              "internalType": "uint256",
              "name": "coverageAmount",
              "type": "uint256"
            },
            {
              "internalType": "uint256",
              "name": "startTime",
              "type": "uint256"
            },
            {
              "internalType": "uint256",
              "name": "endTime",
              "type": "uint256"
            },
            {
              "internalType": "enum WeatherShield.WeatherType",
              "name": "weatherType",
              "type": "uint8"
            },
            {
              "internalType": "int256",
              "name": "triggerThreshold",
              "type": "int256"
            },
            {
              "internalType": "string",
              "name": "location",
              "type": "string"
            },
            {
              "internalType": "enum WeatherShield.PolicyStatus",
              "name": "status",
              "type": "uint8"
            },
            {
              "internalType": "enum WeatherShield.RiskTier",
              "name": "riskTier",
              "type": "uint8"
            }
          ],
          "internalType": "struct WeatherShield.Policy",
          "name": "",
          "type": "tuple"
        }
      ],
      "stateMutability": "view",
      "type": "function"
    },
    {
      "inputs": [],
      "name": "getPoolStats",
      "outputs": [
        {
          "internalType": "uint256",
          "name": "_totalLiquidity",
          "type": "uint256"
        },
        {
          "internalType": "uint256",
          "name": "_totalShares",
          "type": "uint256"
        },
        {
          "internalType": "uint256",
          "name": "_reservedFunds",
          "type": "uint256"
        },
        {
          "internalType": "uint256",
          "name": "_availableLiquidity",
          "type": "uint256"
        },
        {
          "internalType": "uint256",
          "name": "_protocolFees",
          "type": "uint256"
        }
      ],
      "stateMutability": "view",
      "type": "function"
    },
    {
      "inputs": [
        {
          "internalType": "uint256",
          "name": "_proposalId",
          "type": "uint256"
        }
      ],
      "name": "getProposal",
      "outputs": [
        {
          "components": [
            {
              "internalType": "string",
              "name": "paramName",
              "type": "string"
            },
            {
              "internalType": "uint256",
              "name": "newValue",
              "type": "uint256"
            },
            {
              "internalType": "address",
              "name": "proposer",
              "type": "address"
            },
            {
              "internalType": "uint256",
              "name": "votesFor",
              "type": "uint256"
            },
            {
              "internalType": "uint256",
              "name": "votesAgainst",
              "type": "uint256"
            },
            {
              "internalType": "uint256",
              "name": "deadline",
              "type": "uint256"
            },
            {
              "internalType": "enum WeatherShield.ProposalStatus",
              "name": "status",
              "type": "uint8"
            }
          ],
          "internalType": "struct WeatherShield.Proposal",
          "name": "",
          "type": "tuple"
        }
      ],
      "stateMutability": "view",
      "type": "function"
    },
    {
      "inputs": [
        {
          "internalType": "enum WeatherShield.WeatherType",
          "name": "_type",
          "type": "uint8"
        },
        {
          "internalType": "int256",
          "name": "_threshold",
          "type": "int256"
        }
      ],
      "name": "getRiskTier",
      "outputs": [
        {
          "internalType": "enum WeatherShield.RiskTier",
          "name": "",
          "type": "uint8"
        }
      ],
      "stateMutability": "pure",
      "type": "function"
    },
    {
      "inputs": [
        {
          "internalType": "address",
          "name": "_user",
          "type": "address"
        }
      ],
      "name": "getUserPolicies",
      "outputs": [
        {
          "internalType": "uint256[]",
          "name": "",
          "type": "uint256[]"
        }
      ],
      "stateMutability": "view",
      "type": "function"
    },
    {
      "inputs": [
        {
          "internalType": "string",
          "name": "_location",
          "type": "string"
        }
      ],
      "name": "getWeatherData",
      "outputs": [
        {
          "components": [
            {
              "internalType": "int256",
              "name": "value",
              "type": "int256"
            },
            {
              "internalType": "uint256",
              "name": "timestamp",
              "type": "uint256"
            },
            {
              "internalType": "bool",
              "name": "isValid",
              "type": "bool"
            },
            {
              "internalType": "uint8",
              "name": "sourceCount",
              "type": "uint8"
            }
          ],
          "internalType": "struct WeatherShield.WeatherData",
          "name": "",
          "type": "tuple"
        }
      ],
      "stateMutability": "view",
      "type": "function"
    },
    {
      "inputs": [
        {
          "internalType": "uint256",
          "name": "",
          "type": "uint256"
        },
        {
          "internalType": "address",
          "name": "",
          "type": "address"
        }
      ],
      "name": "hasVoted",
      "outputs": [
        {
          "internalType": "bool",
          "name": "",
          "type": "bool"
        }
      ],
      "stateMutability": "view",
      "type": "function"
    },
    {
      "inputs": [
        {
          "internalType": "address",
          "name": "owner",
          "type": "address"
        },
        {
          "internalType": "address",
          "name": "operator",
          "type": "address"
        }
      ],
      "name": "isApprovedForAll",
      "outputs": [
        {
          "internalType": "bool",
          "name": "",
          "type": "bool"
        }
      ],
      "stateMutability": "view",
      "type": "function"
    },
    {
      "inputs": [
        {
          "internalType": "uint256",
          "name": "_policyId",
          "type": "uint256"
        }
      ],
      "name": "isPolicyClaimable",
      "outputs": [
        {
          "internalType": "bool",
          "name": "",
          "type": "bool"
        }
      ],
      "stateMutability": "view",
      "type": "function"
    },
    {
      "inputs": [
        {
          "internalType": "string",
          "name": "",
          "type": "string"
        }
      ],
      "name": "latestWeatherData",
      "outputs": [
        {
          "internalType": "int256",
          "name": "value",
          "type": "int256"
        },
        {
          "internalType": "uint256",
          "name": "timestamp",
          "type": "uint256"
        },
        {
          "internalType": "bool",
          "name": "isValid",
          "type": "bool"
        },
        {
          "internalType": "uint8",
          "name": "sourceCount",
          "type": "uint8"
        }
      ],
      "stateMutability": "view",
      "type": "function"
    },
    {
      "inputs": [
        {
          "internalType": "address",
          "name": "",
          "type": "address"
        }
      ],
      "name": "lpPositions",
      "outputs": [
        {
          "internalType": "uint256",
          "name": "deposited",
          "type": "uint256"
        },
        {
          "internalType": "uint256",
          "name": "shares",
          "type": "uint256"
        }
      ],
      "stateMutability": "view",
      "type": "function"
    },
    {
      "inputs": [],
      "name": "minPremium",
      "outputs": [
        {
          "internalType": "uint256",
          "name": "",
          "type": "uint256"
        }
      ],
      "stateMutability": "view",
      "type": "function"
    },
    {
      "inputs": [],
      "name": "name",
      "outputs": [
        {
          "internalType": "string",
          "name": "",
          "type": "string"
        }
      ],
      "stateMutability": "view",
      "type": "function"
    },
    {
      "inputs": [],
      "name": "owner",
      "outputs": [
        {
          "internalType": "address",
          "name": "",
          "type": "address"
        }
      ],
      "stateMutability": "view",
      "type": "function"
    },
    {
      "inputs": [
        {
          "internalType": "uint256",
          "name": "tokenId",
          "type": "uint256"
        }
      ],
      "name": "ownerOf",
      "outputs": [
        {
          "internalType": "address",
          "name": "",
          "type": "address"
        }
      ],
      "stateMutability": "view",
      "type": "function"
    },
    {
      "inputs": [
        {
          "internalType": "uint256",
          "name": "",
          "type": "uint256"
        }
      ],
      "name": "policies",
      "outputs": [
        {
          "internalType": "address",
          "name": "holder",
          "type": "address"
        },
        {
          "internalType": "uint256",
          "name": "premium",
          "type": "uint256"
        },
        {
          "internalType": "uint256",
          "name": "coverageAmount",
          "type": "uint256"
        },
        {
          "internalType": "uint256",
          "name": "startTime",
          "type": "uint256"
        },
        {
          "internalType": "uint256",
          "name": "endTime",
          "type": "uint256"
        },
        {
          "internalType": "enum WeatherShield.WeatherType",
          "name": "weatherType",
          "type": "uint8"
        },
        {
          "internalType": "int256",
          "name": "triggerThreshold",
          "type": "int256"
        },
        {
          "internalType": "string",
          "name": "location",
          "type": "string"
        },
        {
          "internalType": "enum WeatherShield.PolicyStatus",
          "name": "status",
          "type": "uint8"
        },
        {
          "internalType": "enum WeatherShield.RiskTier",
          "name": "riskTier",
          "type": "uint8"
        }
      ],
      "stateMutability": "view",
      "type": "function"
    },
    {
      "inputs": [],
      "name": "policyCounter",
      "outputs": [
        {
          "internalType": "uint256",
          "name": "",
          "type": "uint256"
        }
      ],
      "stateMutability": "view",
      "type": "function"
    },
    {
      "inputs": [],
      "name": "policyDuration",
      "outputs": [
        {
          "internalType": "uint256",
          "name": "",
          "type": "uint256"
        }
      ],
      "stateMutability": "view",
      "type": "function"
    },
    {
      "inputs": [],
      "name": "priceFeed",
      "outputs": [
        {
          "internalType": "contract AggregatorV3Interface",
          "name": "",
          "type": "address"
        }
      ],
      "stateMutability": "view",
      "type": "function"
    },
    {
      "inputs": [
        {
          "internalType": "uint256",
          "name": "_policyId",
          "type": "uint256"
        },
        {
          "internalType": "int256",
          "name": "_currentValue",
          "type": "int256"
        }
      ],
      "name": "processClaim",
      "outputs": [],
      "stateMutability": "nonpayable",
      "type": "function"
    },
    {
      "inputs": [],
      "name": "proposalCounter",
      "outputs": [
        {
          "internalType": "uint256",
          "name": "",
          "type": "uint256"
        }
      ],
      "stateMutability": "view",
      "type": "function"
    },
    {
      "inputs": [
        {
          "internalType": "uint256",
          "name": "",
          "type": "uint256"
        }
      ],
      "name": "proposals",
      "outputs": [
        {
          "internalType": "string",
          "name": "paramName",
          "type": "string"
        },
        {
          "internalType": "uint256",
          "name": "newValue",
          "type": "uint256"
        },
        {
          "internalType": "address",
          "name": "proposer",
          "type": "address"
        },
        {
          "internalType": "uint256",
          "name": "votesFor",
          "type": "uint256"
        },
        {
          "internalType": "uint256",
          "name": "votesAgainst",
          "type": "uint256"
        },
        {
          "internalType": "uint256",
          "name": "deadline",
          "type": "uint256"
        },
        {
          "internalType": "enum WeatherShield.ProposalStatus",
          "name": "status",
          "type": "uint8"
        }
      ],
      "stateMutability": "view",
      "type": "function"
    },
    {
      "inputs": [
        {
          "internalType": "string",
          "name": "_param",
          "type": "string"
        },
        {
          "internalType": "uint256",
          "name": "_value",
          "type": "uint256"
        }
      ],
      "name": "proposeParameterChange",
      "outputs": [
        {
          "internalType": "uint256",
          "name": "",
          "type": "uint256"
        }
      ],
      "stateMutability": "nonpayable",
      "type": "function"
    },
    {
      "inputs": [],
      "name": "protocolFeePercent",
      "outputs": [
        {
          "internalType": "uint256",
          "name": "",
          "type": "uint256"
        }
      ],
      "stateMutability": "view",
      "type": "function"
    },
    {
      "inputs": [],
      "name": "protocolFees",
      "outputs": [
        {
          "internalType": "uint256",
          "name": "",
          "type": "uint256"
        }
      ],
      "stateMutability": "view",
      "type": "function"
    },
    {
      "inputs": [
        {
          "internalType": "enum WeatherShield.WeatherType",
          "name": "_weatherType",
          "type": "uint8"
        },
        {
          "internalType": "int256",
          "name": "_triggerThreshold",
          "type": "int256"
        },
        {
          "internalType": "string",
          "name": "_location",
          "type": "string"
        }
      ],
      "name": "purchasePolicy",
      "outputs": [
        {
          "internalType": "uint256",
          "name": "policyId",
          "type": "uint256"
        }
      ],
      "stateMutability": "payable",
      "type": "function"
    },
    {
      "inputs": [],
      "name": "renounceOwnership",
      "outputs": [],
      "stateMutability": "nonpayable",
      "type": "function"
    },
    {
      "inputs": [],
      "name": "reservedFunds",
      "outputs": [
        {
          "internalType": "uint256",
          "name": "",
          "type": "uint256"
        }
      ],
      "stateMutability": "view",
      "type": "function"
    },
    {
      "inputs": [
        {
          "internalType": "uint256",
          "name": "",
          "type": "uint256"
        }
      ],
      "name": "riskMultipliers",
      "outputs": [
        {
          "internalType": "uint256",
          "name": "",
          "type": "uint256"
        }
      ],
      "stateMutability": "view",
      "type": "function"
    },
    {
      "inputs": [
        {
          "internalType": "address",
          "name": "from",
          "type": "address"
        },
        {
          "internalType": "address",
          "name": "to",
          "type": "address"
        },
        {
          "internalType": "uint256",
          "name": "tokenId",
          "type": "uint256"
        }
      ],
      "name": "safeTransferFrom",
      "outputs": [],
      "stateMutability": "nonpayable",
      "type": "function"
    },
    {
      "inputs": [
        {
          "internalType": "address",
          "name": "from",
          "type": "address"
        },
        {
          "internalType": "address",
          "name": "to",
          "type": "address"
        },
        {
          "internalType": "uint256",
          "name": "tokenId",
          "type": "uint256"
        },
        {
          "internalType": "bytes",
          "name": "data",
          "type": "bytes"
        }
      ],
      "name": "safeTransferFrom",
      "outputs": [],
      "stateMutability": "nonpayable",
      "type": "function"
    },
    {
      "inputs": [
        {
          "internalType": "address",
          "name": "operator",
          "type": "address"
        },
        {
          "internalType": "bool",
          "name": "approved",
          "type": "bool"
        }
      ],
      "name": "setApprovalForAll",
      "outputs": [],
      "stateMutability": "nonpayable",
      "type": "function"
    },
    {
      "inputs": [
        {
          "internalType": "address",
          "name": "_addr",
          "type": "address"
        }
      ],
      "name": "setCREAuthorized",
      "outputs": [],
      "stateMutability": "nonpayable",
      "type": "function"
    },
    {
      "inputs": [
        {
          "internalType": "uint256",
          "name": "_min",
          "type": "uint256"
        }
      ],
      "name": "setMinPremium",
      "outputs": [],
      "stateMutability": "nonpayable",
      "type": "function"
    },
    {
      "inputs": [
        {
          "internalType": "uint256",
          "name": "_dur",
          "type": "uint256"
        }
      ],
      "name": "setPolicyDuration",
      "outputs": [],
      "stateMutability": "nonpayable",
      "type": "function"
    },
    {
      "inputs": [
        {
          "internalType": "bytes4",
          "name": "interfaceId",
          "type": "bytes4"
        }
      ],
      "name": "supportsInterface",
      "outputs": [
        {
          "internalType": "bool",
          "name": "",
          "type": "bool"
        }
      ],
      "stateMutability": "view",
      "type": "function"
    },
    {
      "inputs": [],
      "name": "symbol",
      "outputs": [
        {
          "internalType": "string",
          "name": "",
          "type": "string"
        }
      ],
      "stateMutability": "view",
      "type": "function"
    },
    {
      "inputs": [
        {
          "internalType": "uint256",
          "name": "tokenId",
          "type": "uint256"
        }
      ],
      "name": "tokenURI",
      "outputs": [
        {
          "internalType": "string",
          "name": "",
          "type": "string"
        }
      ],
      "stateMutability": "view",
      "type": "function"
    },
    {
      "inputs": [],
      "name": "totalLiquidity",
      "outputs": [
        {
          "internalType": "uint256",
          "name": "",
          "type": "uint256"
        }
      ],
      "stateMutability": "view",
      "type": "function"
    },
    {
      "inputs": [],
      "name": "totalPayouts",
      "outputs": [
        {
          "internalType": "uint256",
          "name": "",
          "type": "uint256"
        }
      ],
      "stateMutability": "view",
      "type": "function"
    },
    {
      "inputs": [],
      "name": "totalPremiumsCollected",
      "outputs": [
        {
          "internalType": "uint256",
          "name": "",
          "type": "uint256"
        }
      ],
      "stateMutability": "view",
      "type": "function"
    },
    {
      "inputs": [],
      "name": "totalShares",
      "outputs": [
        {
          "internalType": "uint256",
          "name": "",
          "type": "uint256"
        }
      ],
      "stateMutability": "view",
      "type": "function"
    },
    {
      "inputs": [
        {
          "internalType": "address",
          "name": "from",
          "type": "address"
        },
        {
          "internalType": "address",
          "name": "to",
          "type": "address"
        },
        {
          "internalType": "uint256",
          "name": "tokenId",
          "type": "uint256"
        }
      ],
      "name": "transferFrom",
      "outputs": [],
      "stateMutability": "nonpayable",
      "type": "function"
    },
    {
      "inputs": [
        {
          "internalType": "address",
          "name": "newOwner",
          "type": "address"
        }
      ],
      "name": "transferOwnership",
      "outputs": [],
      "stateMutability": "nonpayable",
      "type": "function"
    },
    {
      "inputs": [
        {
          "internalType": "string",
          "name": "_location",
          "type": "string"
        },
        {
          "internalType": "int256",
          "name": "_value",
          "type": "int256"
        }
      ],
      "name": "updateWeatherData",
      "outputs": [],
      "stateMutability": "nonpayable",
      "type": "function"
    },
    {
      "inputs": [
        {
          "internalType": "string",
          "name": "_location",
          "type": "string"
        },
        {
          "internalType": "int256",
          "name": "_val1",
          "type": "int256"
        },
        {
          "internalType": "int256",
          "name": "_val2",
          "type": "int256"
        },
        {
          "internalType": "int256",
          "name": "_val3",
          "type": "int256"
        }
      ],
      "name": "updateWeatherDataMultiSource",
      "outputs": [],
      "stateMutability": "nonpayable",
      "type": "function"
    },
    {
      "inputs": [
        {
          "internalType": "address",
          "name": "",
          "type": "address"
        },
        {
          "internalType": "uint256",
          "name": "",
          "type": "uint256"
        }
      ],
      "name": "userPolicies",
      "outputs": [
        {
          "internalType": "uint256",
          "name": "",
          "type": "uint256"
        }
      ],
      "stateMutability": "view",
      "type": "function"
    },
    {
      "inputs": [
        {
          "internalType": "uint256",
          "name": "_proposalId",
          "type": "uint256"
        },
        {
          "internalType": "bool",
          "name": "_support",
          "type": "bool"
        }
      ],
      "name": "voteOnProposal",
      "outputs": [],
      "stateMutability": "nonpayable",
      "type": "function"
    },
    {
      "inputs": [
        {
          "internalType": "uint256",
          "name": "_amt",
          "type": "uint256"
        }
      ],
      "name": "withdrawExcess",
      "outputs": [],
      "stateMutability": "nonpayable",
      "type": "function"
    },
    {
      "inputs": [
        {
          "internalType": "uint256",
          "name": "_shares",
          "type": "uint256"
        }
      ],
      "name": "withdrawLiquidity",
      "outputs": [],
      "stateMutability": "nonpayable",
      "type": "function"
    },
    {
      "inputs": [],
      "name": "withdrawProtocolFees",
      "outputs": [],
      "stateMutability": "nonpayable",
      "type": "function"
    },
    {
      "stateMutability": "payable",
      "type": "receive"
    }
  ],
  "bytecode": "0x66038d7ea4c68000600b5562278d00600c9081556014600d556101006040526080908152600a60a052600860c052600660e052620000429060109060046200019e565b503480156200005057600080fd5b5060405162005bea38038062005bea8339810160408190526200007391620001fd565b604080518082018252601481527f57656174686572536869656c6420506f6c6963790000000000000000000000006020808301919091528251808401909352600383526205753560ec1b90830152903380620000e957604051631e4fbdf760e01b81526000600482015260240160405180910390fd5b620000f4816200014e565b50600180556002620001078382620002d6565b506003620001168282620002d6565b5050600e8054336001600160a01b031991821617909155600f80549091166001600160a01b03939093169290921790915550620003a2565b600080546001600160a01b038381166001600160a01b0319831681178455604051919092169283917f8be0079c531659141344cd1fd0a4f28419497f9722a3daafe3b4186f6b6457e09190a35050565b8260048101928215620001d4579160200282015b82811115620001d4578251829060ff16905591602001919060010190620001b2565b50620001e2929150620001e6565b5090565b5b80821115620001e25760008155600101620001e7565b6000602082840312156200021057600080fd5b81516001600160a01b03811681146200022857600080fd5b9392505050565b634e487b7160e01b600052604160045260246000fd5b600181811c908216806200025a57607f821691505b6020821081036200027b57634e487b7160e01b600052602260045260246000fd5b50919050565b601f821115620002d1576000816000526020600020601f850160051c81016020861015620002ac5750805b601f850160051c820191505b81811015620002cd57828155600101620002b8565b5050505b505050565b81516001600160401b03811115620002f257620002f26200022f565b6200030a8162000303845462000245565b8462000281565b602080601f831160018114620003425760008415620003295750858301515b600019600386901b1c1916600185901b178555620002cd565b600085815260208120601f198616915b82811015620003735788860151825594840194600190910190840162000352565b5085821015620003925787850151600019600388901b60f8161c191681555b5050505050600190811b01905550565b61583880620003b26000396000f3fe6080604052600436106103f35760003560e01c8063715018a611610208578063b88d4fde11610118578063d52c1bea116100ab578063e755ddd71161007a578063e755ddd714610c7b578063e985e9c514610c9b578063eedb9ed514610cbb578063f2fde38b14610cd1578063febedeb814610cf157600080fd5b8063d52c1bea14610c34578063d6e6eb9f14610c4a578063e2c41dbc14610c60578063e426e4e814610c6857600080fd5b8063c87b56dd116100e7578063c87b56dd14610bb6578063ca593c5914610bd6578063cc3851f314610bde578063d3e8948314610bfe57600080fd5b8063b88d4fde14610b15578063bbb8518814610b35578063c490fee614610b72578063c7f758a814610b8957600080fd5b80639aa48c231161019b578063a27344b51161016a578063a27344b514610a88578063a2c12cd814610aa8578063b0d5e1c814610abe578063b1610d7e14610ade578063b20e8bcc14610af557600080fd5b80639aa48c23146109b7578063a0a8045e14610a33578063a11a4e2514610a48578063a22cb46514610a6857600080fd5b80638da5cb5b116101d75780638da5cb5b146109445780638dbfbc6214610962578063946d14801461098257806395d89b41146109a257600080fd5b8063715018a6146108da578063741bef1a146108ef578063808c47421461090f5780638795cccb1461092f57600080fd5b806327ae4a311161030357806342842e0e11610296578063545089721161026557806354508972146107e6578063557b78501461082f5780636352211e146108875780636f9fb98a146108a757806370a08231146108ba57600080fd5b806342842e0e1461075557806343859632146107755780634a60f31f146107b0578063509c5df6146107d057600080fd5b80633d36adc5116102d25780633d36adc5146106e95780633dadde20146107095780633fe50f9b1461071f5780634089b1701461073f57600080fd5b806327ae4a31146106665780632b07fce3146106865780633037e4cd146106b35780633a98ef39146106d357600080fd5b806311549cff116103865780631ad8b03b116103555780631ad8b03b146105db578063208fb590146105f1578063233fc62b1461060657806323b872dd1461062657806326caf0191461064657600080fd5b806311549cff1461054b57806315770f92146105785780631614665c1461058e57806319ac4614146105ae57600080fd5b8063095ea7b3116103c2578063095ea7b3146104c55780630a861f2a146104e75780630c0512e9146105075780630d61b5191461052b57600080fd5b8063013cf08b146103ff57806301ffc9a71461043b57806306fdde031461046b578063081812fc1461048d57600080fd5b366103fa57005b600080fd5b34801561040b57600080fd5b5061041f61041a3660046143b7565b610d11565b6040516104329796959493929190614454565b60405180910390f35b34801561044757600080fd5b5061045b6104563660046144c0565b610de3565b6040519015158152602001610432565b34801561047757600080fd5b50610480610e35565b60405161043291906144dd565b34801561049957600080fd5b506104ad6104a83660046143b7565b610ec7565b6040516001600160a01b039091168152602001610432565b3480156104d157600080fd5b506104e56104e036600461450c565b610ef0565b005b3480156104f357600080fd5b506104e56105023660046143b7565b610eff565b34801561051357600080fd5b5061051d60185481565b604051908152602001610432565b34801561053757600080fd5b506104e56105463660046143b7565b611143565b34801561055757600080fd5b5061056b610566366004614545565b61133d565b604051610432919061456e565b34801561058457600080fd5b5061051d60145481565b34801561059a57600080fd5b506104e56105a9366004614591565b611457565b3480156105ba57600080fd5b506105ce6105c93660046145bd565b61161c565b60405161043291906145d8565b3480156105e757600080fd5b5061051d60175481565b3480156105fd57600080fd5b5061051d601981565b34801561061257600080fd5b506104e56106213660046143b7565b611688565b34801561063257600080fd5b506104e5610641366004614610565b611695565b34801561065257600080fd5b506104e56106613660046145bd565b61171a565b34801561067257600080fd5b506104e5610681366004614695565b6117b0565b34801561069257600080fd5b506106a66106a13660046143b7565b6118c9565b60405161043291906146ef565b3480156106bf57600080fd5b506104e56106ce3660046143b7565b611a6a565b3480156106df57600080fd5b5061051d60155481565b3480156106f557600080fd5b5061051d61070436600461450c565b611b72565b34801561071557600080fd5b5061051d60095481565b34801561072b57600080fd5b5061051d61073a36600461479f565b611ba3565b34801561074b57600080fd5b5061051d600a5481565b34801561076157600080fd5b506104e5610770366004614610565b611d46565b34801561078157600080fd5b5061045b6107903660046147eb565b601e60209081526000928352604080842090915290825290205460ff1681565b3480156107bc57600080fd5b5061045b6107cb3660046143b7565b611d66565b3480156107dc57600080fd5b5061051d60165481565b3480156107f257600080fd5b5061081a6108013660046145bd565b601c602052600090815260409020805460019091015482565b60408051928352602083019190915201610432565b34801561083b57600080fd5b5061084f61084a36600461480e565b611e3a565b6040516104329190815181526020808301519082015260408083015115159082015260609182015160ff169181019190915260800190565b34801561089357600080fd5b506104ad6108a23660046143b7565b611eba565b3480156108b357600080fd5b504761051d565b3480156108c657600080fd5b5061051d6108d53660046145bd565b611ec5565b3480156108e657600080fd5b506104e5611f0d565b3480156108fb57600080fd5b50600f546104ad906001600160a01b031681565b34801561091b57600080fd5b5061051d61092a366004614850565b611f21565b34801561093b57600080fd5b506104e5611f6c565b34801561095057600080fd5b506000546001600160a01b03166104ad565b34801561096e57600080fd5b506104e561097d3660046143b7565b612039565b34801561098e57600080fd5b5061051d61099d3660046143b7565b612085565b3480156109ae57600080fd5b506104806120af565b3480156109c357600080fd5b50610a0a6109d2366004614901565b8051602081830181018051601b8252928201919093012091528054600182015460029092015490919060ff8082169161010090041684565b6040805194855260208501939093529015159183019190915260ff166060820152608001610432565b348015610a3f57600080fd5b5061051d6120be565b348015610a5457600080fd5b50600e546104ad906001600160a01b031681565b348015610a7457600080fd5b506104e5610a8336600461494a565b612178565b348015610a9457600080fd5b5061051d610aa33660046145bd565b612183565b348015610ab457600080fd5b5061051d600c5481565b348015610aca57600080fd5b506104e5610ad936600461479f565b6121cd565b348015610aea57600080fd5b5061051d6203f48081565b348015610b0157600080fd5b506104e5610b103660046143b7565b6122d3565b348015610b2157600080fd5b506104e5610b30366004614974565b612527565b348015610b4157600080fd5b50610b4a61253f565b604080519586526020860194909452928401919091526060830152608082015260a001610432565b348015610b7e57600080fd5b5061051d6207a12081565b348015610b9557600080fd5b50610ba9610ba43660046143b7565b612587565b60405161043291906149f0565b348015610bc257600080fd5b50610480610bd13660046143b7565b612692565b6104e5612917565b348015610bea57600080fd5b5061051d610bf93660046143b7565b612a52565b348015610c0a57600080fd5b50610c1e610c193660046143b7565b612a69565b6040516104329a99989796959493929190614a67565b348015610c4057600080fd5b5061051d60085481565b348015610c5657600080fd5b5061051d600d5481565b6104e5612b58565b61051d610c76366004614ae8565b612ba1565b348015610c8757600080fd5b506104e5610c963660046143b7565b613040565b348015610ca757600080fd5b5061045b610cb6366004614b42565b61310a565b348015610cc757600080fd5b5061051d600b5481565b348015610cdd57600080fd5b506104e5610cec3660046145bd565b613138565b348015610cfd57600080fd5b506104e5610d0c366004614b6c565b613173565b601d60205260009081526040902080548190610d2c90614b8e565b80601f0160208091040260200160405190810160405280929190818152602001828054610d5890614b8e565b8015610da55780601f10610d7a57610100808354040283529160200191610da5565b820191906000526020600020905b815481529060010190602001808311610d8857829003601f168201915b50505060018401546002850154600386015460048701546005880154600690980154969793966001600160a01b039093169550909350919060ff1687565b60006001600160e01b031982166380ac58cd60e01b1480610e1457506001600160e01b03198216635b5e139f60e01b145b80610e2f57506301ffc9a760e01b6001600160e01b03198316145b92915050565b606060028054610e4490614b8e565b80601f0160208091040260200160405190810160405280929190818152602001828054610e7090614b8e565b8015610ebd5780601f10610e9257610100808354040283529160200191610ebd565b820191906000526020600020905b815481529060010190602001808311610ea057829003601f168201915b5050505050905090565b6000610ed28261346c565b506000828152600660205260409020546001600160a01b0316610e2f565b610efb8282336134a5565b5050565b610f076134b2565b336000908152601c6020526040902060010154610f3f5760405162461bcd60e51b8152600401610f3690614bc2565b60405180910390fd5b336000908152601c602052604090206001810154821115610f985760405162461bcd60e51b81526020600482015260136024820152724578636565647320796f75722073686172657360681b6044820152606401610f36565b600060155460145484610fab9190614c0f565b610fb59190614c26565b90506000601654601454610fc99190614c48565b9050808211156110265760405162461bcd60e51b815260206004820152602260248201527f46756e647320726573657276656420666f722061637469766520706f6c696369604482015261657360f01b6064820152608401610f36565b8383600101600082825461103a9190614c48565b90915550508254821061104e57600061105b565b825461105b908390614c48565b835560148054839190600090611072908490614c48565b92505081905550836015600082825461108b9190614c48565b9091555050604051600090339084908381818185875af1925050503d80600081146110d2576040519150601f19603f3d011682016040523d82523d6000602084013e6110d7565b606091505b50509050806110f85760405162461bcd60e51b8152600401610f3690614c5b565b604080518481526020810187905233917fb195a67e698c5700e4f48f7b7748dda3a206ee2767ef024b61a26d7b17b2d63a910160405180910390a25050505061114060018055565b50565b6000818152601d6020526040812090600682015460ff16600381111561116b5761116b614420565b146111a65760405162461bcd60e51b815260206004820152600b60248201526a4e6f742070656e64696e6760a81b6044820152606401610f36565b80600501544210156111ed5760405162461bcd60e51b815260206004820152601060248201526f159bdd1a5b99c81b9bdd08195b99195960821b6044820152606401610f36565b6000606460196015546112009190614c0f565b61120a9190614c26565b90506000826004015483600301546112229190614c84565b905081811015801561123b575082600401548360030154115b156113275760068301805460ff1916600117905582546112e890849061126090614b8e565b80601f016020809104026020016040519081016040528092919081815260200182805461128c90614b8e565b80156112d95780601f106112ae576101008083540402835291602001916112d9565b820191906000526020600020905b8154815290600101906020018083116112bc57829003601f168201915b505050505084600101546134dc565b60068301805460ff1916600317905560405184907f712ae1383f79ac853f8d882153778e0260ef8f03b504e2866e0593e04d2b291f90600090a2611337565b60068301805460ff191660021790555b50505050565b60008083600381111561135257611352614420565b0361138f576014821361136757506000610e2f565b6032821361137757506001610e2f565b6064821361138757506002610e2f565b506003610e2f565b60018360038111156113a3576113a3614420565b036113d85760c882126113b857506000610e2f565b606482126113c857506001610e2f565b6032821261138757506002610e2f565b60028360038111156113ec576113ec614420565b0361142357606319821361140257506000610e2f565b601319821361141357506001610e2f565b6014821361138757506002610e2f565b6101c2821261143457506000610e2f565b610190821261144557506001610e2f565b61015e82126113875750600292915050565b336000908152601c60205260409020600101546114865760405162461bcd60e51b8152600401610f3690614bc2565b6000828152601d6020526040812090600682015460ff1660038111156114ae576114ae614420565b146114cb5760405162461bcd60e51b8152600401610f3690614c97565b8060050154421061150d5760405162461bcd60e51b815260206004820152600c60248201526b159bdd1a5b99c8195b99195960a21b6044820152606401610f36565b6000838152601e6020908152604080832033845290915290205460ff16156115675760405162461bcd60e51b815260206004820152600d60248201526c105b1c9958591e481d9bdd1959609a1b6044820152606401610f36565b6000838152601e602090815260408083203384528252808320805460ff19166001908117909155601c909252909120015482156115bd57808260030160008282546115b29190614c84565b909155506115d79050565b808260040160008282546115d19190614c84565b90915550505b60408051841515815260208101839052339186917fcbdf6214089cba887ecbf35a0b6a734589959c9763342c756bb2a80ca2bc9f6e910160405180910390a350505050565b6001600160a01b0381166000908152601a602090815260409182902080548351818402810184019094528084526060939283018282801561167c57602002820191906000526020600020905b815481526020019060010190808311611668575b50505050509050919050565b611690613610565b600b55565b6001600160a01b0382166116bf57604051633250574960e11b815260006004820152602401610f36565b60006116cc83833361363d565b9050836001600160a01b0316816001600160a01b031614611337576040516364283d7b60e01b81526001600160a01b0380861660048301526024820184905282166044820152606401610f36565b611722613610565b6001600160a01b0381166117665760405162461bcd60e51b815260206004820152600b60248201526a426164206164647265737360a81b6044820152606401610f36565b600e80546001600160a01b0319166001600160a01b0383169081179091556040517ff4540d2aa09b0766935f049407a0b7cd6017df1064e5f1d2c36b57e1e2be8ba390600090a250565b600e546001600160a01b03163314806117d357506000546001600160a01b031633145b6117ef5760405162461bcd60e51b8152600401610f3690614cbb565b60006117fc8484846136ef565b6040805160808101825282815242602082015260018183015260036060820152905191925090601b906118329089908990614ce3565b90815260408051918290036020908101832084518155908401516001820155908301516002909101805460609094015160ff166101000261ff00199215159290921661ffff1990941693909317179091557ff6e8f86f004e27d73014a11c3ebd22470f9bbe2d3db570ea52c425741401ce65906118b9908890889085904290600390614d1c565b60405180910390a1505050505050565b6118d16142e8565b60008281526019602090815260409182902082516101408101845281546001600160a01b03168152600182015492810192909252600281015492820192909252600380830154606083015260048301546080830152600583015491929160a084019160ff9091169081111561194857611948614420565b600381111561195957611959614420565b81526020016006820154815260200160078201805461197790614b8e565b80601f01602080910402602001604051908101604052809291908181526020018280546119a390614b8e565b80156119f05780601f106119c5576101008083540402835291602001916119f0565b820191906000526020600020905b8154815290600101906020018083116119d357829003601f168201915b5050509183525050600882015460209091019060ff166003811115611a1757611a17614420565b6003811115611a2857611a28614420565b81526020016008820160019054906101000a900460ff166003811115611a5057611a50614420565b6003811115611a6157611a61614420565b90525092915050565b806008548110611a8c5760405162461bcd60e51b8152600401610f3690614d50565b600082815260196020526040812090600882015460ff166003811115611ab457611ab4614420565b14611ad15760405162461bcd60e51b8152600401610f3690614c97565b80600401544211611b165760405162461bcd60e51b815260206004820152600f60248201526e139bdd08195e1c1a5c9959081e595d608a1b6044820152606401610f36565b60088101805460ff1916600290811790915581015460168054600090611b3d908490614c48565b909155505060405183907fb22aa541487fc93d989bb5b17d1e3a967f649c4979cfd658c0849e070ae0dca090600090a2505050565b601a6020528160005260406000208181548110611b8e57600080fd5b90600052602060002001600091509150505481565b336000908152601c6020526040812060010154611bd25760405162461bcd60e51b8152600401610f3690614bc2565b6018805460009182611be383614d7e565b90915550604080516101006020601f8901819004028201810190925260e08101878152929350918291889088908190850183828082843760009201829052509385525050506020820186905233604083015260608201819052608082015260a001611c516203f48042614c84565b8152602001600090526000828152601d6020526040902081518190611c769082614ddf565b506020820151816001015560408201518160020160006101000a8154816001600160a01b0302191690836001600160a01b03160217905550606082015181600301556080820151816004015560a0820151816005015560c08201518160060160006101000a81548160ff02191690836003811115611cf657611cf6614420565b0217905550905050807f98504bc76d855fac343248bdddc062a45d467777dd16a83e57e505f8121562f386868633604051611d349493929190614e9f565b60405180910390a290505b9392505050565b611d6183838360405180602001604052806000815250612527565b505050565b6000816008548110611d8a5760405162461bcd60e51b8152600401610f3690614d50565b600083815260196020526040812090600882015460ff166003811115611db257611db2614420565b14611dc1576000925050611e34565b8060040154421115611dd7576000925050611e34565b6000601b82600701604051611dec9190614ed4565b908152604051908190036020019020600281015490915060ff16611e1557600093505050611e34565b600582015481546006840154611e2f9260ff16919061375c565b935050505b50919050565b6040805160808101825260008082526020820181905281830181905260608201529051601b90611e6d9085908590614ce3565b908152604080519182900360209081018320608084018352805484526001810154918401919091526002015460ff8082161515928401929092526101009004166060820152905092915050565b6000610e2f8261346c565b60006001600160a01b038216611ef1576040516322718ad960e21b815260006004820152602401610f36565b506001600160a01b031660009081526005602052604090205490565b611f15613610565b611f1f60006137a5565b565b600080611f2e848461133d565b90506010816003811115611f4457611f44614420565b60ff1660048110611f5757611f57614f4a565b0154611f639086614c0f565b95945050505050565b611f74613610565b611f7c6134b2565b60175480611fb65760405162461bcd60e51b81526020600482015260076024820152664e6f206665657360c81b6044820152606401610f36565b6000601781905580546040516001600160a01b039091169083908381818185875af1925050503d8060008114612008576040519150601f19603f3d011682016040523d82523d6000602084013e61200d565b606091505b505090508061202e5760405162461bcd60e51b8152600401610f3690614c5b565b5050611f1f60018055565b612041613610565b620151808110156120805760405162461bcd60e51b8152602060048201526009602482015268151bdbc81cda1bdc9d60ba1b6044820152606401610f36565b600c55565b6000806120906120be565b9050670de0b6b3a76400006120a58285614c0f565b611d3f9190614c26565b606060038054610e4490614b8e565b600f5460408051633fabe5a360e21b815290516000926001600160a01b03169163feaf968c9160048083019260a09291908290030181865afa158015612108573d6000803e3d6000fd5b505050506040513d601f19601f8201168201806040525081019061212c9190614f7a565b509193505060008313915061217590505760405162461bcd60e51b815260206004820152600d60248201526c496e76616c696420707269636560981b6044820152606401610f36565b90565b610efb3383836137f5565b600060155460000361219757506000919050565b6015546014546001600160a01b0384166000908152601c60205260409020600101546121c39190614c0f565b610e2f9190614c26565b600e546001600160a01b03163314806121f057506000546001600160a01b031633145b61220c5760405162461bcd60e51b8152600401610f3690614cbb565b60408051608081018252828152426020820152600181830181905260608201529051601b9061223e9086908690614ce3565b9081526040805191829003602090810183208451815590840151600180830191909155918401516002909101805460609095015160ff166101000261ff00199215159290921661ffff1990951694909417179092557ff6e8f86f004e27d73014a11c3ebd22470f9bbe2d3db570ea52c425741401ce65916122c6918691869186914291614d1c565b60405180910390a1505050565b6122db6134b2565b8060085481106122fd5760405162461bcd60e51b8152600401610f3690614d50565b600082815260196020526040902080546001600160a01b031633146123565760405162461bcd60e51b815260206004820152600f60248201526e4e6f7420796f757220706f6c69637960881b6044820152606401610f36565b6000600882015460ff16600381111561237157612371614420565b1461238e5760405162461bcd60e51b8152600401610f3690614c97565b60008160030154426123a09190614c48565b90506000826003015483600401546123b89190614c48565b90506123c5600282614c26565b82106124085760405162461bcd60e51b8152602060048201526012602482015271151bdbc81b185d19481d1bc818d85b98d95b60721b6044820152606401610f36565b60088301805460ff1916600317905560028301546016805460009061242e908490614c48565b9091555050600183015460009061244790600290614c26565b84546040519192506000916001600160a01b039091169083908381818185875af1925050503d8060008114612498576040519150601f19603f3d011682016040523d82523d6000602084013e61249d565b606091505b50509050806124de5760405162461bcd60e51b815260206004820152600d60248201526c1499599d5b990819985a5b1959609a1b6044820152606401610f36565b867f7c41b459dc71e42d9c8413ad0079d0a19b31e18ab9fb49082b826577e005f3fc8360405161251091815260200190565b60405180910390a250505050505061114060018055565b612532848484611695565b6113373385858585613894565b6000806000806000806016546014541161255a57600061256a565b60165460145461256a9190614c48565b601454601554601654601754929a91995097509195509350915050565b61258f614366565b6000828152601d602052604090819020815160e081019092528054829082906125b790614b8e565b80601f01602080910402602001604051908101604052809291908181526020018280546125e390614b8e565b80156126305780601f1061260557610100808354040283529160200191612630565b820191906000526020600020905b81548152906001019060200180831161261357829003601f168201915b50505091835250506001820154602082015260028201546001600160a01b03166040820152600380830154606083015260048301546080830152600583015460a0830152600683015460c09092019160ff1690811115611a5057611a50614420565b606061269d8261346c565b50600082815260196020908152604080832081516101408101835281546001600160a01b03168152600182015493810193909352600281015491830191909152600380820154606084015260048201546080840152600582015460a084019160ff9091169081111561271157612711614420565b600381111561272257612722614420565b81526020016006820154815260200160078201805461274090614b8e565b80601f016020809104026020016040519081016040528092919081815260200182805461276c90614b8e565b80156127b95780601f1061278e576101008083540402835291602001916127b9565b820191906000526020600020905b81548152906001019060200180831161279c57829003601f168201915b5050509183525050600882015460209091019060ff1660038111156127e0576127e0614420565b60038111156127f1576127f1614420565b81526020016008820160019054906101000a900460ff16600381111561281957612819614420565b600381111561282a5761282a614420565b815250509050600061283f8260a001516139bf565b905060006128508360a00151613a98565b90506000612862846101000151613b6a565b905060006128708484613c44565b612880888760e001518786613c72565b604051602001612891929190614fe6565b604051602081830303815290604052905060006128ad88613cac565b6128b683613d3f565b85858960e001516040516020016128d1959493929190615015565b60405160208183030381529060405290506128eb81613d3f565b6040516020016128fb91906151d9565b6040516020818303038152906040529650505050505050919050565b61291f6134b2565b600034116129605760405162461bcd60e51b815260206004820152600e60248201526d53656e6420736f6d657468696e6760901b6044820152606401610f36565b6000601554600003612973575034612990565b6014546015546129839034614c0f565b61298d9190614c26565b90505b336000908152601c6020526040812080543492906129af908490614c84565b9091555050336000908152601c6020526040812060010180548392906129d6908490614c84565b9250508190555034601460008282546129ef9190614c84565b925050819055508060156000828254612a089190614c84565b9091555050604080513481526020810183905233917fb7cd4486a08dcd2bf7da217a07d1069da69db8ffb3518c7014d6e6d4d973a552910160405180910390a250611f1f60018055565b60108160048110612a6257600080fd5b0154905081565b601960205260009081526040902080546001820154600283015460038401546004850154600586015460068701546007880180546001600160a01b0390981698969795969495939460ff90931693919291612ac390614b8e565b80601f0160208091040260200160405190810160405280929190818152602001828054612aef90614b8e565b8015612b3c5780601f10612b1157610100808354040283529160200191612b3c565b820191906000526020600020905b815481529060010190602001808311612b1f57829003601f168201915b5050506008909301549192505060ff808216916101009004168a565b612b60613610565b60003411611f1f5760405162461bcd60e51b815260206004820152600e60248201526d53656e6420736f6d657468696e6760901b6044820152606401610f36565b6000612bab6134b2565b600b54341015612bef5760405162461bcd60e51b815260206004820152600f60248201526e5072656d69756d20746f6f206c6f7760881b6044820152606401610f36565b81612c2c5760405162461bcd60e51b815260206004820152600d60248201526c2732b2b2103637b1b0ba34b7b760991b6044820152606401610f36565b6000612c38868661133d565b905060006010826003811115612c5057612c50614420565b60ff1660048110612c6357612c63614f4a565b0154612c6f9034614c0f565b9050600060165460145411612c85576000612c95565b601654601454612c959190614c48565b905060006014544783612ca89190614c84565b612cb29190614c48565b90508281101580612cc35750824710155b612d0f5760405162461bcd60e51b815260206004820152601b60248201527f496e73756666696369656e7420706f6f6c206c697175696469747900000000006044820152606401610f36565b60088054906000612d1f83614d7e565b919050559450604051806101400160405280336001600160a01b03168152602001348152602001848152602001428152602001600c5442612d609190614c84565b81526020018a6003811115612d7757612d77614420565b815260200189815260200188888080601f01602080910402602001604051908101604052809392919081815260200183838082843760009201829052509385525050506020820152604001856003811115612dd457612dd4614420565b9052600086815260196020908152604091829020835181546001600160a01b0319166001600160a01b039091161781559083015160018083019190915591830151600282015560608301516003808301919091556080840151600483015560a084015160058301805493949193909260ff1990911691908490811115612e5c57612e5c614420565b021790555060c0820151600682015560e08201516007820190612e7f9082614ddf565b5061010082015160088201805460ff19166001836003811115612ea457612ea4614420565b021790555061012082015160088201805461ff001916610100836003811115612ecf57612ecf614420565b021790555050336000908152601a60209081526040822080546001810182559083529082200187905560098054349350909190612f0d908490614c84565b925050819055508260166000828254612f269190614c84565b9091555050600d54600090606490612f3e9034614c0f565b612f489190614c26565b90506000612f568234614c48565b60155490915015612f79578060146000828254612f739190614c84565b90915550505b8160176000828254612f8b9190614c84565b90915550612f9b90503388613d65565b336001600160a01b0316877f0f812484622a1bd6346eadd75ec371edf1bfc380b8034ca378584a5fd65ddecb34888f8e8e8d604051612fdf9695949392919061521e565b60405180910390a3601554156130295760408051828152602081018490527f9761fc045fbd64d3df258b9138e72c435856255787dfef0428a74ead73954fb4910160405180910390a15b50505050505061303860018055565b949350505050565b613048613610565b6130506134b2565b4781111561308d5760405162461bcd60e51b815260206004820152600a60248201526909cdee840cadcdeeaced60b31b6044820152606401610f36565b600080546040516001600160a01b039091169083908381818185875af1925050503d80600081146130da576040519150601f19603f3d011682016040523d82523d6000602084013e6130df565b606091505b50509050806131005760405162461bcd60e51b8152600401610f3690614c5b565b5061114060018055565b6001600160a01b03918216600090815260076020908152604080832093909416825291909152205460ff1690565b613140613610565b6001600160a01b03811661316a57604051631e4fbdf760e01b815260006004820152602401610f36565b611140816137a5565b600e546001600160a01b031633148061319657506000546001600160a01b031633145b6131b25760405162461bcd60e51b8152600401610f3690614cbb565b8160085481106131d45760405162461bcd60e51b8152600401610f3690614d50565b6131dc6134b2565b600083815260196020526040812090600882015460ff16600381111561320457613204614420565b146132215760405162461bcd60e51b8152600401610f3690614c97565b806004015442111561325f5760405162461bcd60e51b8152602060048201526007602482015266115e1c1a5c995960ca1b6044820152606401610f36565b80600201544710156132a85760405162461bcd60e51b8152602060048201526012602482015271496e73756666696369656e742066756e647360701b6044820152606401610f36565b600581015460068201546000916132c69160ff90911690869061375c565b90508061330a5760405162461bcd60e51b815260206004820152601260248201527110dbdb991a5d1a5bdb9cc81b9bdd081b595d60721b6044820152606401610f36565b60088201805460ff191660011790556002820154600a8054600090613330908490614c84565b909155505060028201546016805460009061334c908490614c48565b909155505060028201546014541061337a578160020154601460008282546133749190614c48565b90915550505b815460028301546040516000926001600160a01b031691908381818185875af1925050503d80600081146133ca576040519150601f19603f3d011682016040523d82523d6000602084013e6133cf565b606091505b50509050806134125760405162461bcd60e51b815260206004820152600f60248201526e151c985b9cd9995c8819985a5b1959608a1b6044820152606401610f36565b8254600284015460408051918252602082018890526001600160a01b039092169188917fbc4b23ed1719fb392cc9b9eee32ea9a001532783d092ea3698c99c99afa644b8910160405180910390a3505050611d6160018055565b6000818152600460205260408120546001600160a01b031680610e2f57604051637e27328960e01b815260048101849052602401610f36565b611d618383836001613dca565b6002600154036134d557604051633ee5aeb560e01b815260040160405180910390fd5b6002600155565b6000826040516020016134ef9190615269565b6040516020818303038152906040528051906020012090507fc87cc14ce5b3e11443380471caa0d991862cf0d32aa8bf85aacbfda7a8e9caaf81036135355750600b5550565b7f5bc3db089cff1fd07a37afed4ae76fc5f72f12936d68791cdeb2825e4101784281036135a2576201518082101561359b5760405162461bcd60e51b8152602060048201526009602482015268151bdbc81cda1bdc9d60ba1b6044820152606401610f36565b50600c5550565b7fb3182e122497ffe6fc5580ca46bc9170a9b4c5a7a4eee452357ca047394186108103611d615760328211156136095760405162461bcd60e51b815260206004820152600c60248201526b08ccaca40e8dede40d0d2ced60a31b6044820152606401610f36565b50600d5550565b6000546001600160a01b03163314611f1f5760405163118cdaa760e01b8152336004820152602401610f36565b6000828152600460205260408120546001600160a01b0316801580159061366c57506001600160a01b03851615155b156136e45760008481526019602052604081206008015460ff16600381111561369757613697614420565b036136e45760405162461bcd60e51b815260206004820152601d60248201527f41637469766520706f6c69636965732061726520736f756c626f756e640000006044820152606401610f36565b611f63858585613ed0565b60008284121580156137015750818413155b8061371757508284131580156137175750818412155b15613723575082611d3f565b8383121580156137335750818313155b8061374957508383131580156137495750818312155b15613755575081611d3f565b5092915050565b60008084600381111561377157613771614420565b148061378e5750600284600381111561378c5761378c614420565b145b1561379c5750808212611d3f565b50808213611d3f565b600080546001600160a01b038381166001600160a01b0319831681178455604051919092169283917f8be0079c531659141344cd1fd0a4f28419497f9722a3daafe3b4186f6b6457e09190a35050565b6001600160a01b03821661382757604051630b61174360e31b81526001600160a01b0383166004820152602401610f36565b6001600160a01b03838116600081815260076020908152604080832094871680845294825291829020805460ff191686151590811790915591519182527f17307eab39ab6107e8899845ad3d59bd9653f200f220920489ca2b5937696c31910160405180910390a3505050565b6001600160a01b0383163b156139b857604051630a85bd0160e11b81526001600160a01b0384169063150b7a02906138d6908890889087908790600401615285565b6020604051808303816000875af1925050508015613911575060408051601f3d908101601f1916820190925261390e918101906152c2565b60015b61397a573d80801561393f576040519150601f19603f3d011682016040523d82523d6000602084013e613944565b606091505b50805160000361397257604051633250574960e11b81526001600160a01b0385166004820152602401610f36565b805160208201fd5b6001600160e01b03198116630a85bd0160e11b146139b657604051633250574960e11b81526001600160a01b0385166004820152602401610f36565b505b5050505050565b606060008260038111156139d5576139d5614420565b036139fd57505060408051808201909152600781526611b31a9cb2983160c91b602082015290565b6001826003811115613a1157613a11614420565b03613a395750506040805180820190915260078152661199b11c19331b60c91b602082015290565b6002826003811115613a4d57613a4d614420565b03613a75575050604080518082019091526007815266119c311ab1b31b60c91b602082015290565b505060408051808201909152600781526608d9598d0d0d0d60ca1b602082015290565b60606000826003811115613aae57613aae614420565b03613ad6575050604080518082019091526007815266111c9bdd59da1d60ca1b602082015290565b6001826003811115613aea57613aea614420565b03613b10575050604080518082019091526005815264119b1bdbd960da1b602082015290565b6002826003811115613b2457613b24614420565b03613b4a575050604080518082019091526005815264119c9bdcdd60da1b602082015290565b50506040805180820190915260048152631219585d60e21b602082015290565b60606000826003811115613b8057613b80614420565b03613ba757505060408051808201909152600681526541637469766560d01b602082015290565b6001826003811115613bbb57613bbb614420565b03613be357505060408051808201909152600781526610db185a5b595960ca1b602082015290565b6002826003811115613bf757613bf7614420565b03613c1f575050604080518082019091526007815266115e1c1a5c995960ca1b602082015290565b505060408051808201909152600981526810d85b98d95b1b195960ba1b602082015290565b6060828383604051602001613c5b939291906152df565b604051602081830303815290604052905092915050565b6060613c7d85613cac565b848484604051602001613c9394939291906155a4565b6040516020818303038152906040529050949350505050565b60606000613cb983613fc9565b600101905060008167ffffffffffffffff811115613cd957613cd9614875565b6040519080825280601f01601f191660200182016040528015613d03576020820181803683370190505b5090508181016020015b600019016f181899199a1a9b1b9c1cb0b131b232b360811b600a86061a8153600a8504945084613d0d57509392505050565b6060610e2f826040518060600160405280604081526020016157c36040913960016140a1565b6001600160a01b038216613d8f57604051633250574960e11b815260006004820152602401610f36565b6000613d9d8383600061363d565b90506001600160a01b03811615611d61576040516339e3563760e11b815260006004820152602401610f36565b8080613dde57506001600160a01b03821615155b15613ea0576000613dee8461346c565b90506001600160a01b03831615801590613e1a5750826001600160a01b0316816001600160a01b031614155b8015613e2d5750613e2b818461310a565b155b15613e565760405163a9fbf51f60e01b81526001600160a01b0384166004820152602401610f36565b8115613e9e5783856001600160a01b0316826001600160a01b03167f8c5be1e5ebec7d5bd14f71427d1e84f3dd0314c0f7b2291e5b200ac8c7c3b92560405160405180910390a45b505b5050600090815260066020526040902080546001600160a01b0319166001600160a01b0392909216919091179055565b6000828152600460205260408120546001600160a01b0390811690831615613efd57613efd818486614221565b6001600160a01b03811615613f3b57613f1a600085600080613dca565b6001600160a01b038116600090815260056020526040902080546000190190555b6001600160a01b03851615613f6a576001600160a01b0385166000908152600560205260409020805460010190555b60008481526004602052604080822080546001600160a01b0319166001600160a01b0389811691821790925591518793918516917fddf252ad1be2c89b69c2b068fc378daa952ba7f163c4a11628f55a4df523b3ef91a4949350505050565b60008072184f03e93ff9f4daa797ed6e38ed64bf6a1f0160401b83106140085772184f03e93ff9f4daa797ed6e38ed64bf6a1f0160401b830492506040015b6d04ee2d6d415b85acef81000000008310614034576d04ee2d6d415b85acef8100000000830492506020015b662386f26fc10000831061405257662386f26fc10000830492506010015b6305f5e100831061406a576305f5e100830492506008015b612710831061407e57612710830492506004015b60648310614090576064830492506002015b600a8310610e2f5760010192915050565b606083516000036140c15750604080516020810190915260008152611d3f565b6000826140f2576003855160046140d89190614c0f565b6140e3906002614c84565b6140ed9190614c26565b614117565b6003855160026141029190614c84565b61410c9190614c26565b614117906004614c0f565b905060008167ffffffffffffffff81111561413457614134614875565b6040519080825280601f01601f19166020018201604052801561415e576020820181803683370190505b50905060018501602082018788518901602081018051600082525b828410156141d4576003840193508351603f8160121c168701518653600186019550603f81600c1c168701518653600186019550603f8160061c168701518653600186019550603f8116870151865350600185019450614179565b905250508515614215576003885106600181146141f8576002811461420b57614213565b603d6001830353603d6002830353614213565b603d60018303535b505b50909695505050505050565b61422c838383614285565b611d61576001600160a01b03831661425a57604051637e27328960e01b815260048101829052602401610f36565b60405163177e802f60e01b81526001600160a01b038316600482015260248101829052604401610f36565b60006001600160a01b038316158015906130385750826001600160a01b0316846001600160a01b031614806142bf57506142bf848461310a565b806130385750506000908152600660205260409020546001600160a01b03908116911614919050565b60405180610140016040528060006001600160a01b03168152602001600081526020016000815260200160008152602001600081526020016000600381111561433357614333614420565b815260200160008152602001606081526020016000600381111561435957614359614420565b815260200160005b905290565b6040518060e00160405280606081526020016000815260200160006001600160a01b031681526020016000815260200160008152602001600081526020016000600381111561436157614361614420565b6000602082840312156143c957600080fd5b5035919050565b60005b838110156143eb5781810151838201526020016143d3565b50506000910152565b6000815180845261440c8160208601602086016143d0565b601f01601f19169290920160200192915050565b634e487b7160e01b600052602160045260246000fd5b6004811061114057634e487b7160e01b600052602160045260246000fd5b60e08152600061446760e083018a6143f4565b905087602083015260018060a01b03871660408301528560608301528460808301528360a083015261449883614436565b8260c083015298975050505050505050565b6001600160e01b03198116811461114057600080fd5b6000602082840312156144d257600080fd5b8135611d3f816144aa565b602081526000611d3f60208301846143f4565b80356001600160a01b038116811461450757600080fd5b919050565b6000806040838503121561451f57600080fd5b614528836144f0565b946020939093013593505050565b80356004811061450757600080fd5b6000806040838503121561455857600080fd5b61452883614536565b61456a81614436565b9052565b6020810161457b83614436565b91905290565b8035801515811461450757600080fd5b600080604083850312156145a457600080fd5b823591506145b460208401614581565b90509250929050565b6000602082840312156145cf57600080fd5b611d3f826144f0565b6020808252825182820181905260009190848201906040850190845b81811015614215578351835292840192918401916001016145f4565b60008060006060848603121561462557600080fd5b61462e846144f0565b925061463c602085016144f0565b9150604084013590509250925092565b60008083601f84011261465e57600080fd5b50813567ffffffffffffffff81111561467657600080fd5b60208301915083602082850101111561468e57600080fd5b9250929050565b6000806000806000608086880312156146ad57600080fd5b853567ffffffffffffffff8111156146c457600080fd5b6146d08882890161464c565b9099909850602088013597604081013597506060013595509350505050565b602081526147096020820183516001600160a01b03169052565b602082015160408201526040820151606082015260608201516080820152608082015160a0820152600060a083015161474560c0840182614561565b5060c083015160e083015260e0830151610140610100818186015261476e6101608601846143f4565b9086015190925061012061478486820183614561565b860151905061479585830182614561565b5090949350505050565b6000806000604084860312156147b457600080fd5b833567ffffffffffffffff8111156147cb57600080fd5b6147d78682870161464c565b909790965060209590950135949350505050565b600080604083850312156147fe57600080fd5b823591506145b4602084016144f0565b6000806020838503121561482157600080fd5b823567ffffffffffffffff81111561483857600080fd5b6148448582860161464c565b90969095509350505050565b60008060006060848603121561486557600080fd5b8335925061463c60208501614536565b634e487b7160e01b600052604160045260246000fd5b600067ffffffffffffffff808411156148a6576148a6614875565b604051601f8501601f19908116603f011681019082821181831017156148ce576148ce614875565b816040528093508581528686860111156148e757600080fd5b858560208301376000602087830101525050509392505050565b60006020828403121561491357600080fd5b813567ffffffffffffffff81111561492a57600080fd5b8201601f8101841361493b57600080fd5b6130388482356020840161488b565b6000806040838503121561495d57600080fd5b614966836144f0565b91506145b460208401614581565b6000806000806080858703121561498a57600080fd5b614993856144f0565b93506149a1602086016144f0565b925060408501359150606085013567ffffffffffffffff8111156149c457600080fd5b8501601f810187136149d557600080fd5b6149e48782356020840161488b565b91505092959194509250565b602081526000825160e06020840152614a0d6101008401826143f4565b90506020840151604084015260018060a01b03604085015116606084015260608401516080840152608084015160a084015260a084015160c084015260c0840151614a5781614436565b60e0939093019290925250919050565b600061014060018060a01b038d1683528b60208401528a6040840152896060840152886080840152614a9888614436565b8760a08401528660c08401528060e0840152614ab6818401876143f4565b915050614ac284614436565b83610100830152614ad283614436565b826101208301529b9a5050505050505050505050565b60008060008060608587031215614afe57600080fd5b614b0785614536565b935060208501359250604085013567ffffffffffffffff811115614b2a57600080fd5b614b368782880161464c565b95989497509550505050565b60008060408385031215614b5557600080fd5b614b5e836144f0565b91506145b4602084016144f0565b60008060408385031215614b7f57600080fd5b50508035926020909101359150565b600181811c90821680614ba257607f821691505b602082108103611e3457634e487b7160e01b600052602260045260246000fd5b60208082526018908201527f4e6f742061206c69717569646974792070726f76696465720000000000000000604082015260600190565b634e487b7160e01b600052601160045260246000fd5b8082028115828204841417610e2f57610e2f614bf9565b600082614c4357634e487b7160e01b600052601260045260246000fd5b500490565b81810381811115610e2f57610e2f614bf9565b6020808252600f908201526e15da5d1a191c985dc819985a5b1959608a1b604082015260600190565b80820180821115610e2f57610e2f614bf9565b6020808252600a90820152694e6f742061637469766560b01b604082015260600190565b6020808252600e908201526d139bdd08185d5d1a1bdc9a5e995960921b604082015260600190565b8183823760009101908152919050565b81835281816020850137506000828201602090810191909152601f909101601f19169091010190565b608081526000614d30608083018789614cf3565b602083019590955250604081019290925260ff1660609091015292915050565b602080825260149082015273141bdb1a58de48191bd95cdb89dd08195e1a5cdd60621b604082015260600190565b600060018201614d9057614d90614bf9565b5060010190565b601f821115611d61576000816000526020600020601f850160051c81016020861015614dc05750805b601f850160051c820191505b818110156139b657828155600101614dcc565b815167ffffffffffffffff811115614df957614df9614875565b614e0d81614e078454614b8e565b84614d97565b602080601f831160018114614e425760008415614e2a5750858301515b600019600386901b1c1916600185901b1785556139b6565b600085815260208120601f198616915b82811015614e7157888601518255948401946001909101908401614e52565b5085821015614e8f5787850151600019600388901b60f8161c191681555b5050505050600190811b01905550565b606081526000614eb3606083018688614cf3565b6020830194909452506001600160a01b039190911660409091015292915050565b6000808354614ee281614b8e565b60018281168015614efa5760018114614f0f57614f3e565b60ff1984168752821515830287019450614f3e565b8760005260208060002060005b85811015614f355781548a820152908401908201614f1c565b50505082870194505b50929695505050505050565b634e487b7160e01b600052603260045260246000fd5b805169ffffffffffffffffffff8116811461450757600080fd5b600080600080600060a08688031215614f9257600080fd5b614f9b86614f60565b9450602086015193506040860151925060608601519150614fbe60808701614f60565b90509295509295909350565b60008151614fdc8185602086016143d0565b9290920192915050565b60008351614ff88184602088016143d0565b83519083019061500c8183602088016143d0565b01949350505050565b7f7b226e616d65223a2257656174686572536869656c6420506f6c69637920230081526000865161504d81601f850160208b016143d0565b7f222c226465736372697074696f6e223a22506172616d65747269632077656174601f918401918201527f68657220696e737572616e636520706f6c696379222c22696d616765223a2264603f8201527f6174613a696d6167652f7376672b786d6c3b6261736536342c00000000000000605f82015286516150d6816078840160208b016143d0565b7f222c2261747472696275746573223a5b7b2274726169745f74797065223a2257607892909101918201527532b0ba3432b9102a3cb8329116113b30b63ab2911d1160511b609882015285516151338160ae840160208a016143d0565b7f227d2c7b2274726169745f74797065223a22537461747573222c2276616c756560ae929091019182015262111d1160e91b60ce8201526151cd6151bd6151b761518060d1850189614fca565b7f227d2c7b2274726169745f74797065223a224c6f636174696f6e222c2276616c8152643ab2911d1160d91b602082015260250190565b86614fca565b63227d5d7d60e01b815260040190565b98975050505050505050565b7f646174613a6170706c69636174696f6e2f6a736f6e3b6261736536342c00000081526000825161521181601d8501602087016143d0565b91909101601d0192915050565b86815285602082015261523085614436565b84604082015260a06060820152600061524d60a083018587614cf3565b905061525883614436565b826080830152979650505050505050565b6000825161527b8184602087016143d0565b9190910192915050565b6001600160a01b03858116825284166020820152604081018390526080606082018190526000906152b8908301846143f4565b9695505050505050565b6000602082840312156152d457600080fd5b8151611d3f816144aa565b7f3c73766720786d6c6e733d22687474703a2f2f7777772e77332e6f72672f323081527f30302f737667222077696474683d2233353022206865696768743d223335302260208201527f207374796c653d226261636b67726f756e643a23306631373261223e0000000060408201527f3c726563742077696474683d2233353022206865696768743d22333530222072605c8201527f783d223230222066696c6c3d2223306631373261222f3e000000000000000000607c8201527f3c7265637420783d2231302220793d223130222077696474683d22333330222060938201527f6865696768743d22333330222072783d223136222066696c6c3d226e6f6e652260b3820152681039ba3937b5b29e9160b91b60d38201526000845161540d8160dc8501602089016143d0565b7f22207374726f6b652d77696474683d223222206f7061636974793d22302e352260dc9184019182015261179f60f11b60fc8201526152b86155866151b761554a61554461550260fe87017f3c7465787420783d223137352220793d2235302220746578742d616e63686f7281527f3d226d6964646c65222066696c6c3d2277686974652220666f6e742d73697a6560208201527f3d2232302220666f6e742d7765696768743d22626f6c642220666f6e742d666160408201527f6d696c793d2273616e732d7365726966223e57656174686572536869656c643c60608201526517ba32bc3a1f60d11b608082015260860190565b7f3c7465787420783d223137352220793d2238302220746578742d616e63686f7281526f1e9136b4b232363291103334b6361e9160811b602082015260300190565b89614fca565b7f2220666f6e742d73697a653d2231342220666f6e742d66616d696c793d227361815269373996b9b2b934b3111f60b11b6020820152602a0190565b7110283937ba32b1ba34b7b71e17ba32bc3a1f60711b815260120190565b7f3c7465787420783d223137352220793d223134302220746578742d616e63686f81527f723d226d6964646c65222066696c6c3d22233934613362382220666f6e742d7360208201527f697a653d2231322220666f6e742d66616d696c793d2273616e732d7365726966604082015269223e506f6c696379202360b01b60608201526000855161563b81606a850160208a016143d0565b661e17ba32bc3a1f60c91b606a918401918201527f3c7465787420783d223137352220793d223137302220746578742d616e63686f60718201527f723d226d6964646c65222066696c6c3d2277686974652220666f6e742d73697a60918201527f653d2231312220666f6e742d66616d696c793d2273616e732d7365726966223e60b18201526902637b1b0ba34b7b71d160b51b60d18201526157b76157a56156f461579f61575061574a6157078460db89018e614fca565b661e17ba32bc3a1f60c91b815260070190565b7f3c7465787420783d223137352220793d223235302220746578742d616e63686f815270391e9136b4b232363291103334b6361e9160791b602082015260310190565b8a614fca565b7f2220666f6e742d73697a653d2231362220666f6e742d7765696768743d22626f81527f6c642220666f6e742d66616d696c793d2273616e732d7365726966223e0000006020820152603d0190565b87614fca565b651e17b9bb339f60d11b815260060190565b97965050505050505056fe4142434445464748494a4b4c4d4e4f505152535455565758595a6162636465666768696a6b6c6d6e6f707172737475767778797a303132333435363738392b2fa26469706673582212203933b47451792125ec3ed6dfdb9dd048b2086d7dbdef5f1bc059896a2934408164736f6c63430008180033",
  "linkReferences": {},
  "deployedLinkReferences": {}
}